:020000040800F2
:10000000E0070020A9120008B5020008B7020008A6
:10001000BB020008BF020008C30200080000000085
:10002000000000000000000000000000C7020008FF
:10003000C902000800000000CB020008CD02000841
:10004000C3120008C3120008C3120008C31200083C
:10005000C3120008C3120008C3120008C31200082C
:10006000C3120008E3090008C3120008C312000805
:10007000C3120008C3120008C3120008C31200080C
:10008000C3120008C3120008C3120008C3120008FC
:10009000C3120008C3120008C3120008C3120008EC
:1000A000C3120008C3120008C3120008C3120008DC
:1000B000C3120008C3120008C3120008C3120008CC
:1000C000C3120008C3120008C3120008C3120008BC
:1000D000C312000887120008C3120008C3120008E8
:1000E000C3120008C3120008C312000800F002F88F
:1000F00000F090F80AA090E8000C82448344AAF132
:100100000107DA4501D100F085F8AFF2090EBAE82F
:100110000F0013F0010F18BFFB1A43F0010318473B
:10012000FC4D00001C4E0000103A24BF78C878C176
:10013000FAD8520724BF30C830C144BF04680C60ED
:10014000704700000023002400250026103A28BF35
:1001500078C1FBD8520728BF30C148BF0B60704739
:100160006E2902F0CD81702902F00F83662904F018
:100170005F85652904F05C85672904F0598561294C
:10018000AFF3008003681B0A28BF41F08001692992
:1001900002F07A81642902F07781752902F0748176
:1001A0006F2902F09C82782902F0DB82E92902F0B3
:1001B0003782E42902F03482F52902F03182EF29F6
:1001C00002F09982F82902F0DA820368DB0928BF7D
:1001D00041F08001632902F09486732902F0998628
:1001E000E32902F0A486F32902F0A98600207047D3
:1001F0001FB502F0FBFE04000020002103F060FFA9
:10020000401C60600020002103F044FFE0601FBD3F
:1002100010B510BD02F0BCFE1146FFF7E9FF00F07B
:1002200009F802F099FF03B4FFF7F2FF03BC00F0F6
:10023000CFFF00001FB54FF0000A00F05FFF00F095
:1002400030FF26E00AF1010000F0FF0A504604F0FA
:1002500091FC1349019004F0CBFB834604F09CFB16
:10026000064603F0C7FE00220E4BCDE9020104F062
:100270009FF9044600220B4B03F038FF80464246AC
:100280000B4609A0CDF800A000F0CFFC322000F012
:1002900072FFD7E710B50446204600F0C6FC10BD3B
:1002A0000000C040000060404420252E326620251A
:1002B00064000000704700BFFEE700BFFEE700BF1C
:1002C000FEE700BFFEE770477047704770470000C9
:1002D0000CB50020019000906C48006840F480301C
:1002E0006A49086000BF6948006800F40030009067
:1002F0000198401C0190009818B90198B0F5A06FC2
:10030000F1D16248006800F4003010B10120009083
:1003100001E0002000900098012843D15C4800686B
:1003200040F010005A4908600846006820F00300B9
:1003300008600846006840F00200086053484068C2
:10034000524948600846406848600846406840F4A2
:10035000806048600846406820F47C104860084689
:10036000406840F4E81048600846006840F080703B
:10037000086000BF4548006800F000700028F9D010
:100380004248406820F00300404948600846406801
:1003900040F00200486000BF3C48406800F00C009C
:1003A0000828F9D10CBD10B5FFF792FF10BD10B5AC
:1003B0003648006840F0010034490860084640684B
:1003C00034490840314948600846006832490840CD
:1003D0002E4908600846006820F48020086008461E
:1003E000406820F4FE0048604FF41F008860FFF76B
:1003F000DAFF4FF000602949086010BD10B50021F8
:1004000000200022214B5B6803F00C0121B104297C
:1004100006D0082928D107E0214B224C236027E091
:100420001F4B204C236023E0184B5B6803F47010D3
:10043000164B5B6803F48032022303EB904022B931
:10044000194B4343174C23600DE0104B5B6803F4DA
:10045000003323B1144B4343124C236003E0104B91
:100460004343104C236003E00D4B0E4C236000BF50
:1004700000BF064B5B68C3F303130C4CE15C094BF4
:100480001B68CB40074C236010BD000000100240E9
:10049000002002400000FFF8FFFFF6FE08ED00E03C
:1004A00000127A000000002000093D000400002036
:1004B0000146002003E000220A54421CD0B20A5C2C
:1004C0000AB16428F7DB70470EB50420ADF80800C8
:1004D00001208DF80A0010208DF80B0002A9FE48BB
:1004E00000F062FF0421FC4801F00DF80820ADF88F
:1004F000080003208DF80A0048208DF80B0002A99F
:10050000F54800F051FF0321002001F063F80820B6
:10051000009000208DF804000C208DF805000120CB
:100520008DF80600684601F065FE0EBD08B509208D
:100530008DF8000000208DF8010001208DF80200E8
:100540008DF80300684601F058FC08BD10B504465C
:100550002146E24801F0B6FD00BF0221DF4801F06C
:1005600004FE0028F9D010BD70B504462546E117F9
:1005700004EB1161C1F30720FFF7E8FFE0B2FFF7DA
:10058000E5FF70BD70B504461021D34800F0BBFFF5
:100590002046FFF7E9FF0120FFF7D8FFCF4801F021
:1005A00093FDC5B20020FFF7D1FFCC4801F08CFDD0
:1005B000C5B21021C84800F0A4FF284670BD70B530
:1005C00004460D4616461021C34800F09CFF2846FD
:1005D000FFF7CAFF082101EB4411C9B241F0050041
:1005E000FFF7B4FF3046FFF7B1FF1021BA4800F023
:1005F00088FF70BD70B504460D4616461021B648FA
:1006000000F081FF2846FFF7AFFF082101EB4411FE
:10061000C9B241F00600FFF799FF3046FFF7A4FF8B
:100620001021AD4800F06DFF70BD70B505460E4657
:100630001021A94800F067FF3046FFF795FF082119
:1006400001EB4511C9B241F00200FFF77FFFA3485B
:1006500001F03AFD04460020FFF778FF9F4801F0C3
:1006600033FD04460020FFF771FF4FF6FF7000EAEC
:1006700004249A4801F028FD204484B210219648B1
:1006800000F03FFF204670BD2DE9F04780460D4643
:1006900026214046FFF7C9FF064616B90020BDE8EF
:1006A000F08740F2B450864200DD064628214046DD
:1006B000FFF7BBFF0746B946C7F30A071021864874
:1006C00000F021FF3846FFF74FFF182101EB4811DA
:1006D000C8B2FFF73BFF814801F0F6FC00F0FF0ACB
:1006E000B819B0F5006F11DA00240CE00020FFF714
:1006F0002DFF7A4801F0E8FC00F0FF0A85F800A021
:100700006D1C601C84B2B442F0DB39E0C7F50060B8
:1007100087B200240CE00020FFF718FF6F4801F0BB
:10072000D3FC00F0FF0A85F800A06D1C601C84B2A9
:10073000BC42F0DB1021684800F0E3FE102166485F
:1007400000F0E1FE0020FFF70FFF182101EB481138
:10075000C8B2FFF7FBFE614801F0B6FC00F0FF0AEB
:100760000CE00020FFF7F2FE5C4801F0ADFC00F069
:10077000FF0A85F800A06D1C601C84B2B442F0DB57
:100780001021554800F0BDFE09EB06001FFA80F964
:100790004A4628214046FFF72DFF402201214046CE
:1007A000FFF70DFF30467AE770B505460E46144652
:1007B0001021494800F0A7FE3046FFF7D5FE08217A
:1007C00001EB4511C9B241F00700FFF7BFFE14F875
:1007D000010BFFF7BBFE14F8010BFFF7B7FE14F88F
:1007E000010BFFF7B3FE14F8010BFFF7AFFE10216A
:1007F000394800F086FE70BD10B5044640F2B45290
:1008000012210020FFF7F6FE082C26D2DFE804F0C4
:10081000041E1F202122232431484178007801EB57
:10082000002082B204210020FFF7E4FE2D48417829
:10083000007801EB002082B210210020FFF7DAFEE1
:10084000294A0C210020FFF7AFFF07E006E005E092
:1008500004E003E002E001E000E000BF00BF10BDE3
:1008600070B504460D4610211B4800F04CFE28468A
:10087000FFF77AFE082101EB4411C9B241F00100F3
:10088000FFF764FE154801F01FFCC6B20020FFF719
:100890005DFE124801F018FCC6B210210E4800F0AF
:1008A00030FE304670BD70B500201049087000BFA2
:1008B0001720FFF767FE054605F0010000287CD0F1
:1008C00002210020FFF7CCFF04462246022100202F
:1008D000FFF775FE0CE00000000801400030014009
:1008E000260000202C0000202800002039000020D5
:1008F00004F0010028B1FE48007840F00200FC49F5
:10090000087004F0020050B1102201210020FFF70E
:1009100056FE0020FFF770FF0020F549087004F034
:10092000100028B1F348007840F00200F149087047
:1009300004F00400002843D0EE48007840F00100A5
:10094000EC490870EC480078022825D1EB490020DA
:10095000FFF79AFE0838EA490870EA48FFF7A8FD51
:10096000E7480278E5490831E64801F0D7FCE3485A
:100970000078E5490870E14840784870DF488078A1
:100980008870DE48C078C870DC480079DF4908709C
:10099000DA48407948700EE0D8490020FFF774FE2D
:1009A000D7490870D748FFF783FDD5480278D34967
:1009B000D44801F0B3FCD34800E00CE0FFF76AFC38
:1009C00004F0080038B1102201210020FFF7F7FDE4
:1009D0000020C74908701720FFF7D4FD00B167E772
:1009E00070BD10B5082001F06BFC38B1082001F093
:1009F00078FC0120C6490870FFF755FF10BD00B50F
:100A000087B0012141F2050000F08AFFE020ADF837
:100A1000180003208DF81A0018208DF81B0006A975
:100A2000BC4800F0C1FCE021BA4800F06AFD10208B
:100A3000ADF8180003208DF81A0010208DF81B0067
:100A400006A9B44800F0B0FC1021B24800F059FDEE
:100A50000020ADF804004FF48270ADF806000020CD
:100A6000ADF80800ADF80A00ADF80C004FF40070C6
:100A7000ADF80E000020ADF81000ADF81200072010
:100A8000ADF8140001A9A44801F046FA0121A248DA
:100A900001F0E7FA07B000BD70B505460C4610211D
:100AA0009C4800F030FD2846FFF75EFD0520FFF76B
:100AB0004DFD2046FFF74AFD1021964800F021FD2C
:100AC00070BD70B505460C461021924800F01BFD24
:100AD0002846FFF749FD0620FFF738FD2046FFF7BF
:100AE00043FD10218B4800F00CFD70BD2DE9F04155
:100AF00007460C4615461021864800F004FD38468E
:100B0000FFF732FD0420FFF721FD002605E014F871
:100B1000010BFFF71BFD701C86B2AE42F7DB102104
:100B20007C4800F0EEFCBDE8F0812DE9F047074677
:100B30000D46904600213846FFF792FE00F00F0068
:100B400022280ED0704A0C213846FFF72DFE6F4840
:100B50004178007801EB002082B210213846FFF77F
:100B600049FD24213846FFF760FD0646B146C6F32D
:100B70000A061021674800F0C6FC3046FFF7F4FC77
:100B8000102101EB4711C9B241F00400FFF7DEFC70
:100B900006EB0800B0F5006F0ADA002405E015F84E
:100BA000010BFFF7D3FC601C84B24445F7DB28E05F
:100BB000C6F5006086B2002405E015F8010BFFF7CA
:100BC000C5FC601C84B2B442F7DB1021514800F030
:100BD00098FC10214F4800F096FC0020FFF7C4FC61
:100BE000102101EB4711C9B241F00400FFF7AEFC40
:100BF00005E015F8010BFFF7A9FC601C84B2444521
:100C0000F7DB1021434800F07CFC09EB08001FFAD9
:100C100080F94A4624213846FFF7ECFC20220121C6
:100C20003846FFF7CCFCBDE8F0870FB42DE9F84358
:100C300009A800903948FFF73BFC3848009A08990A
:100C400001F05AFBC7B200200090344E2421FFF778
:100C5000ECFC0546A846C5F30A0510212D4800F016
:100C600052FC2846FFF780FC1420FFF76FFCE819C0
:100C7000B0F5006F0ADA002405E016F8010BFFF763
:100C800065FC601C84B2BC42F7DB23E0C5F5006064
:100C900085B2002405E016F8010BFFF757FC601C35
:100CA00084B2AC42F7DB10211A4800F02AFC102174
:100CB000184800F028FC0020FFF756FC1420FFF72E
:100CC00045FC05E016F8010BFFF740FC601C84B200
:100CD000BC42F7DB10210F4800F013FC08EB0700C3
:100CE0001FFA80F8424624210020FFF783FC17E01A
:100CF0003500002036000020340000205400002081
:100D000037000020B80000202E0000203200002014
:100D10003900002000080140003001401C01002083
:100D2000202201210020FFF74AFCBDE8F8035DF80E
:100D300014FB10B50421E44800F0E5FB322000F07C
:100D40001AFA0421E04800F0DCFBC82000F013FA96
:100D500000BF2E20FFF716FC00F001000028F8D09D
:100D600010BD10B5002480210020FFF795FE0A2059
:100D700000F001FA0422D5490120FFF7B7FE042252
:100D8000D3490520FFF7B2FE0622D2490920FFF71A
:100D9000ADFE0422D0490F20FFF7A8FE00BF0BE0F4
:100DA00002221E212046FFF70AFC02221F212046B4
:100DB000FFF705FC601CC4B2082CF1DB4FF4FA61AC
:100DC0001920FFF77EFE08211B20FFF765FE012199
:100DD0001820FFF761FE1F222C210020FFF7EFFBF8
:100DE00010BD38B5BC480078401CC0B28DF800007A
:100DF000B9484078401CC0B28DF80100B6488078F0
:100E0000401CC0B28DF80200B348C078401CC0B28C
:100E10008DF803006A460C210020FFF7C5FC012273
:100E200000210846FFF7CBFB012211460020FFF707
:100E3000C6FB052000F09FF903210020FFF710FDFD
:100E4000132806D0102201210020FFF7B8FB002054
:100E500038BD042201210020FFF7B1FB00BF0024B0
:100E600002210020FFF7FCFC044624B122460221A7
:100E70000020FFF7A4FB052000F07DF904F0080036
:100E8000082801D10020E3E706210020FFF7E8FC55
:100E9000FF2806D0102201210020FFF790FBFF2041
:100EA000D6E7DCE710B50446012200212046FFF713
:100EB00086FB012211462046FFF781FB052000F04A
:100EC0005AF903212046FFF7CBFC132806D0102245
:100ED00001212046FFF773FB002010BD04220121F1
:100EE0002046FFF76CFB322000F045F90321204635
:100EF000FFF7B6FC172806D0102201212046FFF785
:100F00005EFB0020E9E7FF20E7E710B50446012279
:100F100000212046FFF753FB012211462046FFF730
:100F20004EFB052000F027F903212046FFF798FC2F
:100F3000132806D0102201212046FFF740FB002095
:100F400010BD022201212046FFF739FB052000F0E9
:100F500012F903212046FFF783FC142806D0102243
:100F600001212046FFF72BFB0020E9E7FF20E7E700
:100F700010B50446022200212046FFF720FB012283
:100F800011462046FFF71BFB052000F0F4F8032173
:100F90002046FFF765FC222806D0102201212046BA
:100FA000FFF70DFB002010BDFF20FCE710B54B48FC
:100FB000007838BB4A48007860B90020FFF7A5FFE9
:100FC000FF2803D10120454908701FE00020434954
:100FD00008701BE04248007801280BD100BF0020B8
:100FE000FFF760FFFF28FAD101203C4908703D4916
:100FF00008700BE00020FFF7BBFFFF2803D10320A0
:101000003649087002E000203449087010BDC02045
:101010002E490870A820487001208870C870FF20F1
:101020002B490870487088700020C8700C2029492E
:10103000087029204870AB2088707C20C870002080
:10104000087101204871C02023490870A820487009
:1010500001208870C720C870132023490870882099
:101060004870C02021490870A8204870012088706D
:10107000BE20C87017201E49087070204870C0201C
:101080001C490870A820487001208870BE20C870D4
:101090001720194908707020487002201049087004
:1010A000704710B5FFF742FAFFF7A9FCFFF70CFAFB
:1010B000FFF7ADFFFFF73DFEFFF753FE0020FFF700
:1010C0009BFBFFF773FF10BD0008014014000020D8
:1010D000180000201C000020220000203500002005
:1010E000340000203A0000202600002028000020C4
:1010F0002C0000202E0000203200002010B56FF0E0
:10110000040000F0C4FE2E4800682E49B0FBF1F048
:101110002D4908700846007800EB4001C1EBC01073
:101120004FF6FF7101EAC0002849088010BD014652
:10113000254A12784A434FF0E0235A6100229A610F
:101140001A46126942F001021A6100BF4FF0E02214
:10115000106900F001021AB100F48032002AF5D0C3
:101160004FF0E022126922F001024FF0E0231A61F1
:1011700000229A6170470146144A12884A434FF090
:10118000E0235A6100229A611A46126942F0010274
:101190001A6100BF4FF0E022106900F001021AB19D
:1011A00000F48032002AF5D04FF0E022126922F0DC
:1011B00001024FF0E0231A6100229A61704700009B
:1011C0000000002000127A003C0000203E000020B9
:1011D000014600BF704700BF314A128802F040024A
:1011E000002AF9D0C2B22E4B1B1D1A80704710B5D1
:1011F00086B00446012144F2040000F091FB4FF454
:101200000070ADF8140003208DF8160018208DF83A
:10121000170005A9234800F0C7F84FF48060ADF827
:10122000140004208DF8170005A91E4800F0BCF832
:1012300025208DF8000003208DF801008DF80200B4
:1012400001208DF80300684600F0D7FD01940020CE
:10125000ADF80800ADF80A00ADF80C00ADF81000CC
:101260000C20ADF80E0001A90D4800F000FC012291
:1012700040F225510A4800F092FC0121084800F094
:1012800082FC06B010BD10B540F22551044800F0B4
:101290006BFD18B1024800F0E7FCC4B210BD0000BD
:1012A00000380140000801400948804709480047CC
:1012B000FEE7FEE7FEE7FEE7FEE7FEE7FEE7FEE706
:1012C000FEE7FEE704480549054A064B7047000063
:1012D000AF030008ED000008E0010020E007002057
:1012E000E0030020E003002010B50446CC4884420F
:1012F00008D10121042000F02DFB0021042000F082
:1013000029FB46E0C748844208D10121082000F0AB
:1013100021FB0021082000F01DFB3AE0C248844276
:1013200008D10121102000F015FB0021102000F051
:1013300011FB2EE0BD48844208D10121202000F09D
:1013400009FB0021202000F005FB22E0B848844280
:1013500008D10121402000F0FDFA0021402000F0DA
:10136000F9FA16E0B348844208D10121802000F048
:10137000F1FA0021802000F0EDFA0AE0AE48844244
:1013800007D10121801500F0E5FA0021A01500F039
:10139000E1FA10BD10B50121084600F0DBFA00218A
:1013A000012000F0D7FA10BD2DE9F04102460025DA
:1013B0000026002000230024002791F803C00CF031
:1013C0000F0591F803C00CF0100CBCF1000F03D016
:1013D00091F802C04CEA050591F800C0BCF1000F7D
:1013E00031D0146800202BE04FF0010C0CFA00F310
:1013F000B1F800C00CEA03069E4220D183004FF0F2
:101400000F0C0CFA03F7BC4305FA03FC4CEA040486
:1014100091F803C0BCF1280F06D14FF0010C0CFA73
:1014200000FCC2F814C00AE091F803C0BCF1480FF8
:1014300005D14FF0010C0CFA00FCC2F810C0401CA2
:101440000828D1D31460B1F800C0BCF1FF0F34DD1F
:10145000546800202EE000F1080C4FF0010808FA53
:101460000CF3B1F800C00CEA03069E4221D18300C0
:101470004FF00F0C0CFA03F7BC4305FA03FC4CEADF
:10148000040491F803C0BCF1280F05D100F1080C49
:1014900008FA0CF8C2F8148091F803C0BCF1480FA8
:1014A00007D100F1080C4FF0010808FA0CF8C2F857
:1014B0001080401C0828CED35460BDE8F0814FF660
:1014C000FF710180022181700421C17070470246C2
:1014D000002093680B400BB1012000E00020704712
:1014E0000146886880B2704702460020D3680B40EE
:1014F0000BB1012000E0002070470146C86880B2AF
:10150000704701617047416170470AB1016100E0B5
:1015100041617047C16070474FF480320A43826175
:101520008161826182698269704702460020434B73
:1015300018684FF68073184040EA021008433F4B8A
:10154000186070473E49C8617047F0B50A460023ED
:1015500000240021002500F00046B6F1004F02D122
:10156000364EF16901E0354E7168C0F3034583B230
:1015700000F44016B6F5401F08D121F070612F4EDF
:10158000766826F070662D4F7E6012E000F48016BB
:10159000B6F5801F06D1032606FA05F4A14341F0F3
:1015A000706106E0460D360103FA06F6B14341F0DC
:1015B000706122B1460D360103FA06F6314300F0A0
:1015C0000046B6F1004F02D11C4EF16101E01B4E06
:1015D0007160F0BD30B500228B071C0F0F2303FA9A
:1015E00004F2164B08338C1053F824309343134CF9
:1015F00008348D1044F8253023468C1053F82430DD
:101600008C07240F00FA04F423430C4C08348D108B
:1016100044F8253030BD0A49DC31086070470000CD
:1016200000080140000C014000100140001401407E
:1016300000180140001C0140002001400000014052
:1016400000002042DF48006840F00100DD490860EA
:1016500008464068DC490840DA49486008460068A6
:10166000DA490840D74908600846006820F480201D
:1016700008600846406820F4FE0048604FF41F00F0
:1016800088607047CF49096821F48031CD4A1160E4
:101690001146096821F480211160B0F5803F03D024
:1016A000B0F5802F0ED106E0C649096841F48031BB
:1016B000C44A116007E0C349096841F4A021C14A46
:1016C000116000E000BF00BF704710B50146002266
:1016D000002300204A11012A02D1BA4C236806E0F7
:1016E000022A02D1B74C236A01E0B64C636A01F0CA
:1016F0001F02012494401C400CB1012000E0002096
:1017000010BD38B5002000900024002500BF312016
:10171000FFF7DBFF05460098401C00900098B0F5ED
:10172000A06F01D0002DF2D03120FFF7CEFF08B11D
:10173000012400E00024204638BD01460020A14AD3
:10174000106820F0F80040EAC10010607047A0491E
:1017500008607047024600209A4B586820F47C10BD
:1017600042EA01031843974B58607047984908664E
:10177000704701460020934A506820F00300084358
:10178000506070478F48406800F00C007047014679
:1017900000208C4A506820F0F000084350607047E9
:1017A00001460020874A506820F4E06008435060FA
:1017B000704701460020834A506820F4605040EA98
:1017C000C1005060704729B17E4A527A02437D4B76
:1017D0005A7204E07B4A527A82437A4B5A727047BB
:1017E0007B49D8310860704701460020754A50682F
:1017F00020F440400843506070470021714A203275
:101800001170704A82F82010012802D004280AD1F1
:1018100004E001216B4A2032117005E00521694A7C
:101820002032117000E000BF00BF704769490860B6
:1018300070476449096A0143624A11627047654909
:1018400044390860704730B500210022002400238D
:101850005C4D6D6805F00C0121B1042905D0082903
:1018600023D105E05C4D056022E05B4D05601FE083
:10187000544D6D6805F47012524D6D6805F4803456
:10188000022505EB92421CB9544D554305600BE00F
:101890004C4D6D6805F400351DB1504D5543056044
:1018A00002E04D4D5543056002E04B4D056000BF21
:1018B00000BF444D6D6805F0F0010909484D6B5CAF
:1018C0000568DD4045603F4D6D6805F4E061090A3B
:1018D000434D6B5C4568DD4085603A4D6D6805F4AD
:1018E0006051C90A3E4D6B5C4568DD40C560354DB1
:1018F0006D6805F44041890B3A4D6B5CC568B5FBDA
:10190000F3F5056130BD29B12E4A526902432D4BD2
:101910005A6104E02B4A526982432A4B5A6170474C
:1019200029B1284A92690243264B9A6104E0254A6C
:1019300092698243234B9A61704729B1214AD26947
:101940000243204BDA6104E01E4AD26982431D4BF8
:10195000DA61704729B11B4AD2680243194BDA6039
:1019600004E0184AD2688243164BDA60704729B106
:10197000144A12690243134B1A6104E0114A1269B6
:101980008243104B1A617047124940390860704712
:101990000F49C86470470B49C87170470948406ACD
:1019A00040F0807007494862704701460020054AB0
:1019B00092680A400AB1012000E000207047014906
:1019C00088727047001002400000FFF8FFFFF6FE2B
:1019D000000042428004424200127A0000093D00A9
:1019E000400000205000002010B50446FB4884420F
:1019F00009D101218803FFF7ADFF00214FF480409A
:101A0000FFF7A8FF32E0F648844209D101214804DB
:101A1000FFF7ADFF00214FF40030FFF7A8FF25E0EE
:101A2000F048844209D101218804FFF7A0FF00217A
:101A30004FF48020FFF79BFF18E0EB48844209D168
:101A40000121C804FFF793FF00214FF40020FFF7A6
:101A50008EFF0BE0E548844208D101210805FFF71D
:101A600086FF00214FF48010FFF781FF10BD2DE9A4
:101A7000F04786B005460E460024A24600BFA146A8
:101A80000027B08900B100BF2F462C8A4CF6FF70AA
:101A90000440F08804432C82AC894EF6F3100440D5
:101AA000B08831890843718908430443AC81AC8A0A
:101AB0004FF6FF400440B0890443AC8201A8FFF711
:101AC000C2FEC648874202D1DDF810A001E0DDF871
:101AD0000CA0A88900F4004040B10AEBCA0000EB5A
:101AE0000A1031684900B0FBF1F807E00AEBCA00C0
:101AF00000EB0A1031688900B0FBF1F86420B8FBF4
:101B0000F0F004012009642101FB1089A88900F488
:101B1000004040B1322000EBC900B0FBF1F000F012
:101B20000700044308E0322000EB09106421B0FBF9
:101B3000F1F000F00F0004432C8106B0BDE8F087FF
:101B40004FF41651016000218180C18001810C2178
:101B5000418100218181704710B502460020108A22
:101B60004FF2FF0318400B884C8823438C88234393
:101B7000CC8823431843108210BD0021018041808E
:101B80008180C180704721B1828942F400528281F4
:101B900004E082894DF6FF731A4082817047F0B5E8
:101BA0000346002400260025002040F66A17B942AB
:101BB00000D100BF1846C1F3421401F01F060127EF
:101BC00007FA06F5012C01D10C3004E0022C01D1FA
:101BD000103000E014301AB107682F43076002E0AC
:101BE0000768AF430760F0BD1AB1838A0B43838255
:101BF00002E0838A8B4383827047028A4FF6F07338
:101C00001A400282028A0A430282704782894FF296
:101C1000FF731A40828182890A438281704721B111
:101C2000828942F00202828104E082894FF6FD73CC
:101C30001A4082817047028A4FF6DF731A4002828F
:101C4000028A0A430282704721B1028A42F480422A
:101C5000028204E0028A4BF6FF731A400282704748
:101C6000C1F308028280704701468888C0F30800EB
:101C70007047818941F0010181817047028BD2B2A6
:101C80000283028B42EA012202837047028B02F434
:101C90007F420283028B0A430283704721B1828A0A
:101CA00042F02002828204E0828A4FF6DF731A40FB
:101CB0008282704721B1828A42F01002828204E05F
:101CC000828A4FF6EF731A408282704721B1828A6E
:101CD00042F00802828204E0828A4FF6F7731A40CB
:101CE0008282704721B1828942F40042828103E0FE
:101CF0008289C2F30E028281704721B1828A42F446
:101D00000062828204E0828A4FF2FF731A4082826C
:101D10007047828A4FF6FB731A408282828A0A4396
:101D20008282704721B1828A42F00202828204E0FC
:101D3000828A4FF6FD731A40828270470246002065
:101D4000B1F5007F00D100BF13880B400BB101201B
:101D500000E00020704701F40072B2F5007F00D16E
:101D600000BFCA430280704770B5024600240023BA
:101D70000025002040F66A16B14200D100BFC1F331
:101D8000421501F01F03012606FA03F3012D02D1CB
:101D90009689334006E0022D02D1168A334001E0D5
:101DA000968A33400C12012606FA04F41688344051
:101DB00013B10CB1012000E0002070BD10B500226D
:101DC000002340F66A14A14200D100BF0A12012488
:101DD0009440A3B2DC43048010BD000000380140F1
:101DE0000044004000480040004C004000500040CB
:101DF00031490143314A1160704770B50021002319
:101E00000F22C47804B32D4C246804F4E064C4F5B4
:101E1000E064210AC1F10403CA40447804FA03F1E2
:101E20008478144021430901254C0678A155047893
:101E300004F01F050124AC4005786D11AD0005F1DB
:101E4000E025C5F8004109E0047804F01F050124ED
:101E5000AC401C4D0678761145F8264070BD1A4AF4
:101E60000A400243154B1B1F1A60704739B1134AD1
:101E7000121D12680243114B1B1D1A6006E00F4A27
:101E8000121D126882430D4B1B1D1A6070470428F7
:101E900008D14FF0E021096941F004014FF0E02240
:101EA000116107E04FF0E021096921F004014FF0D2
:101EB000E0221161704700000000FA050CED00E01F
:101EC00000E400E080E100E080FFFF1F10B5044661
:101ED000BE48844208D101218014FFF73BFD002158
:101EE000A014FFF737FD16E0B948844208D101215C
:101EF0000014FFF73CFD00212014FFF738FD0AE035
:101F0000B448844207D10121C013FFF730FD0021FE
:101F1000E013FFF72CFD10BD10B50022028802F47B
:101F200041520B884C8823438C882343CC8823431D
:101F30000C8923434C8923438C892343CC89234335
:101F40001A430280838B4FF2FF74234083830B8AF2
:101F5000038210BD2DE9F04F85B005460C464FF0C9
:101F6000000902274FF000084FF0010B0026B2468F
:101F7000A88B4FF240010840A88302202884B5F8BE
:101F80001C90A068022801D100BF38E0A08810B9D9
:101F90004FF0010B01E04FF0020B8D48854200D15C
:101FA00000E000BF6846FFF74EFCDDF800A0E088C7
:101FB000B0F5007F0AD14FEA1A2000EB8000400004
:101FC000A168B0FBF1F0401D86B20BE04FEA4B1068
:101FD000BAFBF0F000EB80004000A168B0FBF1F02C
:101FE000401D86B20A20B6FBF0F606F00108A6EB0B
:101FF0000800C0F34F074FF6FF7000EA0828022FD1
:1020000001DBFF2F02DD02274FF00008E08840EAE5
:10201000080038432884A088A189084361880843C0
:102020002188084340F4006040EA0909A5F81C90A3
:1020300005B0BDE8F08F0021018041808180C18022
:10204000018141818181C181072101827047002185
:10205000018041808180C1800221816000218181D5
:10206000704721B1028842F04002028004E00288F9
:102070004FF6BF731A400280704721B1828B42F441
:102080008062828304E0828B4FF6FF331A408283A2
:10209000704730B5002400230C110125A540ABB2D8
:1020A0001AB185881D43858002E085889D4385801F
:1020B00030BD1AB183880B43838002E083888B4351
:1020C00083807047818170470146888970474FF649
:1020D000FF62914204D0028842F48072028004E0E0
:1020E00002884FF6FF631A400280704721B1828850
:1020F00042F00402828004E082884FF6FB731A40AB
:102100008280704702884FF2FF731A400280028873
:102110000A4302807047018841F480510180704772
:1021200021B1028842F40052028004E002884DF698
:10213000FF731A400280704702460020012901D037
:10214000108B00E0908A70470146088A7047B1F50D
:10215000804F04D1028842F48042028004E0028869
:102160004BF6FF731A400280704702460020138925
:102170000B400BB1012000E000207047CA430281F0
:102180007047F0B50246002000240023002501F02E
:102190000F070126BE40B4B20B1101269E40B3B218
:1021A000968806EA03051689264016B10DB101206E
:1021B00000E00020F0BD10B5002201F00F04012363
:1021C000A3409AB2D343038110BD00000030014008
:1021D00000380040003C0040002044490860091DD0
:1021E0000860091D0860091D086041483F49143115
:1021F0000860704700213D498279002A3AD00A469A
:10220000126803689A430B461A600A1D1268036835
:102210009A430B1D1A60027911440A6803681A4335
:102220000A60324A0832126803689A432F4B083317
:102230001A601A1D126803689A432C4B0C331A60FB
:102240004279102A0ED11A1F126803681A43274BCD
:1022500008331A601A1D126803681A43234B0C33A3
:102260001A600DE02149427911440A6803681A4353
:102270000A6005E0027911440A6803689A430A601B
:1022800070470021016001710C21417100218171B1
:1022900070471649103109680143144A1032116021
:1022A000704701460020114A143212680A400AB1F0
:1022B000012000E0002070470C491431086070478D
:1022C000014600200022094B1B6803EA0102074B6C
:1022D00014331B680B4013B10AB1012000E0002049
:1022E0007047024914310860704700000004014043
:1022F000FFFF0F00704700001CB50C46064B7B44E7
:1023000069460090204600F014F904460020694612
:1023100000F022F920461CBD57020000032A40F2BB
:10232000308010F0030C00F0158011F8013BBCF177
:10233000020F624498BF11F801CB00F8013B38BF8F
:1023400011F8013BA2F1040298BF00F801CB38BF9D
:1023500000F8013B11F0030300F0E682083AC0F0F8
:10236000088051F8043B083A51F804CBA0E8081063
:10237000F5E7121D5CBF51F8043B40F8043BAFF396
:102380000080D20724BF11F8013B11F801CB48BFF0
:1023900011F8012B24BF00F8013B00F801CB48BF26
:1023A00000F8012B7047704770477047704710B5B1
:1023B00000F0ECFA006810BD10B5044600F0E6FA33
:1023C000046010BD70B5044685690068C10601D57A
:1023D000302600E02026C00707D070BDD4E90121D7
:1023E00030469047206A401C20626D1EF6D570BDB5
:1023F00070B5044685690078C00707D170BDD4E97F
:10240000012120209047206A401C20626D1EF6D5D5
:1024100070BD09684A0501D540B27047C905FCD5B1
:1024200000B2704709684A0501D5C0B27047C905B6
:10243000FCD580B2704770B50C460546012A05D020
:102440002878800600D5EA69002302E0012305E030
:102450005B1C934202D2E05C0028F9D1A869E6181F
:10246000C01AA861286A184428622846FFF7AAFF04
:1024700004E0D5E9012114F8010B9047B442F8D3E8
:102480002846FFF7B5FF70BD2DE9F0410646002450
:1024900010687529314616A510D0FFF7BAFF00283D
:1024A00002DA404213A507E031688A0701D512A578
:1024B00002E0490704D511A5012401E0FFF7B2FFAE
:1024C00000210A2206F1240709E0B0FBF2FCB0FB70
:1024D000F2F302FB1C00303078541846491C0028E7
:1024E000F3D123462A463046BDE8F04100F097BAC2
:1024F000000000002D0000002B0000002000000064
:1025000011680268006A530501D508700AE0D30516
:1025100001D5088006E0130603D5C217C1E9000201
:1025200000E008600120704701694A1C02610878D8
:10253000704700B58FB0CDE9013100210591054903
:102540007944CDE903101146684600F029F90FB02F
:1025500000BD0000E5FFFFFF0A6802F8010B0A60FA
:10256000704700002DE9FF5F15468A460446DFF8F4
:10257000AC80F8440027D8E900103E46CDE90010B1
:1025800010E03AF816106A4602A800F0DCFC411C84
:1025900007D02178890603D5E269391891420DD810
:1025A0000744761C2078800602D5E069B84205DD34
:1025B000AE42E6DB3AF816000028E2D1A069C01B63
:1025C000A0612046FFF7FEFED8E90010CDE900101B
:1025D000002017E03AF818106A4602A800F0B3FC91
:1025E000B0F1FF3F81460BD000250DF1080B05E04F
:1025F000D4E901211BF8050090476D1C4D45F7D328
:1026000008F10100B0428046E4DB206A38442062D1
:102610002046FFF7EDFEBDE8FF9F0000AE2700005B
:102620002DE9F0418046D21D22F007020025D2E9B3
:102630000002F52915A614D0011E72F1000106DA78
:102640000023D0EB030063EB020211A608E0D8F8E8
:1026500000108B0701D50FA602E0490701D50EA691
:1026600001251146002408F1240704E000F092F946
:1026700030323A55641C50EA0102F7D12B463246FB
:1026800021464046BDE8F04100F0C9B90000000015
:102690002D0000002B0000002000000030B40021BD
:1026A00000F1240408E002F00705D208303542EAC0
:1026B0004372DB086554491C52EA0305F3D10468F0
:1026C000002310A2250707D5A40600D421B1C469B0
:1026D00001230DA2641EC46130BC00F0A0B910B586
:1026E000044621461068FFF79DFE02462046BDE8DD
:1026F00010400023D2E7D21D22F00701D1E90023C8
:10270000CCE700000000000030000000F0B40D46EF
:102710000188090502D5214C7C4402E01F4C7C4411
:102720000E34002100F1240608E002F00F07120920
:10273000E75D42EA03721B097754491C52EA03071A
:10274000F3D102780023120704D5702D06D009B109
:10275000022311342246F0BC00F061B90123103489
:10276000F8E770B504460D4621461068FFF75AFE9B
:10277000024629462046BDE870400023C6E7D21D28
:1027800022F00703D3E90023C0E70368126843F08F
:10279000200303600823C3610023B7E7102600006D
:1027A0002DE9F05F894604464FF0000ADFF874B166
:1027B000FB44C0F820A02046E1688847002874D078
:1027C000252806D0D4E901219047206A401C2062C8
:1027D000F1E700265F462046E16888472028054645
:1027E00007DB312D05D2781910F8200C08B106430B
:1027F000F1E7B00701D526F00406C4F81CA00027B5
:10280000C4F818A02A2D09D0284601F0EBFB38B3F4
:1028100004EB8708303DC8F8185019E059F8041B3C
:10282000204604EB87029161E1688847012F054645
:1028300018D1E069002820DA26F020061DE0D8F83B
:10284000180000EB800005EB40003038C8F8180095
:102850002046E1688847054601F0C4FB0028EED118
:10286000012F0AD02E2D08D12046E16888477F1C11
:102870000546022F46F02006C4DBA069002803DAD3
:10288000404246F00106A061F00701D026F0100694
:102890006C2D0BD0682D09D04C2D39D06A2D35D038
:1028A000742D35D07A2D33D016E038E0E1682F460C
:1028B00020468847B842054609D16C2F26D04FF4F0
:1028C0008060E168064320468847054604E06C2F97
:1028D0001AD04FF4807006430DB3A5F141001928BA
:1028E00002D8203546F400664A462946204626602E
:1028F0004E46FDF735FC80B101280BD0F61D26F0C1
:10290000070000F1080956E74020E4E78020D8E7F7
:102910000020D6E706F104094DE7284652E7206A71
:10292000BDE8F09FA025000010B5203AC0F00B8054
:10293000B1E81850203AA0E81850B1E81850A0E8C3
:102940001850BFF4F5AF5FEA027C24BFB1E818501D
:10295000A0E8185044BF18C918C0BDE810405FEA8D
:10296000827C24BF51F8043B40F8043B08BF704709
:10297000D20728BF31F8023B48BF11F8012B28BF0E
:1029800020F8023B48BF00F8012B70470048704711
:102990008001002030B5B0F10A024FEA900E71F1CB
:1029A00000034EEA817EB0EB0E0061EB91014FEA2D
:1029B000101E4EEA017E10EB0E0041EB11114FEAA2
:1029C000102E4EEA016E10EB0E0041EB11214FEA82
:1029D000104E4EEA014E10EB0E0041EB1141401833
:1029E00041F100014FEAD00040EA41704FEAD101C5
:1029F00010EB80054FEA810444EA907444EB010433
:102A00006D1944EB0404521BA3414FF0000348BF6F
:102A10000A3200D530BD401C41F1000130BD2DE926
:102A2000F0470D4699469246044600F12408016895
:102A3000880604D5E06921F01001216000E0012042
:102A4000A84201DD471B00E00027A1697A1902EBCB
:102A50000900081AA0612078C00602D42046FFF7BA
:102A6000B1FC002608E0D4E901211AF806009047DD
:102A7000206A401C761C20624E45F4DB2078C0069C
:102A80000AD52046FFF79EFC06E0D4E9012130205C
:102A90009047206A401C2062381EA7F10107F4DC31
:102AA00007E0D4E9012118F805009047206A401C8E
:102AB0002062281EA5F10105F3DC2046FFF798FCF3
:102AC0002078000602D50220BDE8F0870120FBE750
:102AD00070472DE9FF4F0C461E464FF0FF378BB075
:102AE000D2E90001DDF860800A908A46C1F30A55F8
:102AF00005B93D46002108464FF00000BAF1000F2D
:102B000000F4400005DA00EB80004FF4400101EAD8
:102B100050004FEA9059B9F1010F00DDB9460A980B
:102B200050EA4A000ED044F61050A5F2FF35454356
:102B30002F14B8F1000F1ED07542291E1EDDC9F1F9
:102B400000021CE0B8F1010F4FF0000001D030216D
:102B500003E0F24305E02154401CB042FBDB304669
:102B60000022002121540B99C1F80880C1E90020FE
:102B70000FB0BDE8F08FBD1B6D1CDEE74A4600DAE2
:102B8000694206A800F076FA06AB93E8070003ABAB
:102B900083E8070050460A9900F028FB8DE80700FB
:102BA000A0F500501F3800900398002D0ADD42F276
:102BB0001F014A460844002303A90390684600F019
:102BC00091FD09E0A0F500504A461F38002303A9F3
:102BD0000390684600F09BFD8DE807000004000CA0
:102BE00003D04FF0FF30410800E01046B8F1000F6D
:102BF00003D00022009215461EE0751E05D4FFF793
:102C0000C9FE303262556D1EF9D5B3460122084324
:102C100002D000227F1C04E02078302801D100225D
:102C20007F1E002A099784D01DE0112D07DAFFF7D7
:102C3000B1FE303262556D1C50EA0102F5D10843F5
:102C400002D00098C8B10EE00021681E05E0235CA8
:102C5000625C63542254401E491C8142F7DBAB4640
:102C6000A81B401E0990002004F80B000B98099A3D
:102C7000C0F80880C0E9002B7AE711264FF0000861
:102C800057E72DE9F04F88460446D21D22F0070190
:102C900091B0D1E90001CDE90A0100F06FFE0246D2
:102CA0000B98C00F01D02D2007E02068810701D5C7
:102CB0002B2002E0202101EAC000032A099001D064
:102CC000072A05DB03464146204600F093F90BE155
:102CD0002078800601D5E06900E00620B8F1650F94
:102CE000814606D0B8F1660F18D0B8F1670F70D1E1
:102CF00031E00020B9F1110F009001DB112301E058
:102D000009F101030AAA01A90CA8FFF7E2FEDDE917
:102D10000C70002609F10105834647E001204B466F
:102D200000904FF000470AAA01A90CA8FFF7D1FEB6
:102D3000DDE90DB00C995D46002610B909F10100DE
:102D40000D18B9EB050003D4C0F1FF3609F10105F8
:102D5000A5EB09002BE0B9F1010F01DA4FF00109F1
:102D60000020B9F1110F0090484601DD112300E069
:102D700003460AAA01A90CA8FFF7ABFEDDE90C7017
:102D80004D4600268346207800070AD4AB4500DA7A
:102D90005D4601A8012D04DD411911F8011C3029FF
:102DA00007D04F4502DA17F1040F04DA01208246FA
:102DB0000FE06D1EEEE7002F02DCED1B3E4403E04A
:102DC000781CA84200DD7D1CB81B00F1010A4FF001
:102DD00000472078000703D4AA4501DB4FF0FF3AF3
:102DE0000021B7F1004F0DF143088DF8431024D0B6
:102DF00002202B23002F01DA7F422D230A21021EFD
:102E0000A0F1010000DC5FB197FBF1FC97FBF1F250
:102E100001FB1C7C17460CF1300C08F801CDEEE7E5
:102E2000A8F1010003702188090501D5452100E0C2
:102E30006521A0F1010800F8011C09980FA9A1EB78
:102E40000807FF1D00B10120411901EBEA70A169DB
:102E50003844081A401EA0612078C00602D42046DB
:102E6000FFF7B0FA099828B1D4E901219047206A08
:102E7000401C20622078C00622D52046FFF7A2FA27
:102E80001EE0002E04DBB34502DD01A8805D00E0FA
:102E90003020D4E901219047206A401C2062761C32
:102EA000AAF101005FEA000A0AD100F09FF8C068A9
:102EB0000168405CD4E901219047206A401C2062EF
:102EC000281EA5F10105DCDC07E0D4E9012118F892
:102ED000010B9047206A401C2062381EA7F10107B1
:102EE000F3DC2046FFF784FA032011B041E610B569
:102EF000436913B1AFF3008001E0FFF79CFA0120B2
:102F000010BD127800F124010A7000224A700122DB
:102F1000EDE711684FF0FF32E9E710B5436913B1EF
:102F2000AFF3008001E0FFF71DFB012010BD128808
:102F300000F1240182840022C2840122EDE711689D
:102F40004FF0FF32E9E770B516460C46054600F033
:102F500045F8036893F80101012806D0FF2C0FD82B
:102F6000185D68B101202C7070BDD3F8070132469E
:102F7000214603F2071303442846BDE87040184772
:102F80004FF0FF3070BD0000004870478001002006
:102F90007546FFF7F9FFAE4605006946534620F037
:102FA0000700854618B020B5FEF78CF9BDE8204033
:102FB0004FF000064FF000074FF000084FF0000BF5
:102FC00021F00701AC46ACE8C009ACE8C009ACE8A8
:102FD000C009ACE8C0098D467047000010B500F08C
:102FE00005F8001D10BD00BFD91000000048704753
:102FF000A00100202DE9F0411F4604460326016888
:10300000072A01F4006004DB08B116A505E016A547
:1030100003E008B115A500E015A521F0100020601F
:10302000A069C01EA0610FB1401EA0612046FFF73D
:10303000C9F94FB1D4E9012138469047206A401CB4
:103040002062C01C206206E0206AFAE7D4E9012170
:1030500015F8010B9047761EF8D22046FFF7C8F905
:10306000BDE8F0814E414E006E616E00494E460053
:10307000696E66002DE9F047814616468AB03548EC
:1030800078440DC88DE80D0032487844801C03ACAC
:103090000DC884E80D0041F69B300844372190FBB1
:1030A000F1F290FBF1F5A5F1800501FB12041B3C48
:1030B00002D56442012000E00020DFF898A080469D
:1030C0000027FA44AAF1BE0A0EE0E0070AD0324611
:1030D000684607EB470101230AEB810100F017FB6B
:1030E0008DE8070064107F1C002CEED1194F7F443F
:1030F000AE3F19E0E80715D007EB04100DF1180AF0
:1031000090E80E008AE80E00C068F04201D19819DC
:1031100008903246012306A903A800F0F8FA03AB91
:1031200083E807006D10641C002DE3D14FF001030C
:1031300032466946B8F1000F03A802D000F0D2FA77
:1031400001E000F0E4FAC9E90001C9F808200AB07A
:10315000BDE8F087801E000010B50446AFF3008084
:103160002046BDE81040FDF75EB800004FF0013C7E
:1031700050F8042B51F8043B9A4221D1A2EB0C03E6
:10318000934313EACC1317D150F8042B51F8043BA6
:103190009A4215D1A2EB0C03934313EACC130BD143
:1031A00050F8042B51F8043B9A4209D1A2EB0C03CE
:1031B000934313EACC13DBD04FF00000704700BFFD
:1031C000D01A01BAB1FA81F101F0180122FA01F026
:1031D000CB40C1F12001DBB2C0B2C01A2CFA01F31E
:1031E000D11A914311EAC311E6D170475FEA400C4E
:1031F00008BF91F0000F4FEA8C234FEAC12243EA47
:1032000051514FEA1C5018BF00F5F0404FEA300012
:1032100018BF41F000415FEA6C5C00F02980BCF10E
:10322000FF3F08BF40F080407047130C06BF1204F8
:103230004FF0100C4FF0000C130E04BF12020CF1F3
:10324000080C130F04BF12010CF1040C930F04BF00
:1032500092000CF1020CD30F04BF52000CF1010CD0
:1032600011464FF00002A0F11F00A0EB0C007047C8
:1032700011F0004F08BF704731F000413FF4D5AF67
:103280000B0C06BF09044FF0100C4FF0000C0B0E96
:1032900004BF09020CF1080C0B0F04BF09010CF16B
:1032A000040C8B0F04BF89000CF1020CCB0F04BF80
:1032B00049000CF1010CCCF12003A0EB0C0022FA28
:1032C00003F302FA0CF241EA030100F10100704736
:1032D00020F07F4C80EA030023F07F47ACEB07032C
:1032E00003F57C5300F0004003F1FF032DE9804912
:1032F0004FEA154B09B44FEA144325EA0B4E24EA72
:1033000003480FF2042606EB132749083E785FEACC
:10331000320203FB0667C7F5000707FB06F64FEA14
:1033200054374FEAD64606F1020607FB066CCCF18D
:10333000005C4FEA1C472CEA074C07FB06F40CFB29
:1033400006F504EB15464FEA961634BF00204FF001
:1033500000404FEAD13706FB07FC4FEA1C4C0CFB40
:103360000BF7D21B03FB0CF761EB07010CFB0EF70D
:10337000B0EB074072EB17420CFB08F734BFA2EB2F
:103380000742B2EB074261EB17414FEA0C444FEAA8
:10339000910706FB07FC4FEA1C4C0CFB0BF7B0EB4C
:1033A000C74072EB573203FB0CF734BFA2EBC742A6
:1033B000B2EBC74261EB57310CFB0EF7B0EBC70025
:1033C00072EB57720CFB08F734BFA2EBC702B2EBEB
:1033D000C70261EB5771039F4FEA816141EA921185
:1033E00004EBCC044FEAD1374FEA826206FB07FCBC
:1033F00042EA90124FEA80604FEA1C4C0CFB0BF73C
:10340000D21B03FB0CF761EB07010CFB0EF7B0EBD3
:10341000074072EB17420CFB08F734BFA2EB0742E0
:10342000B2EB074261EB17414FEA8C554FEA910727
:1034300004EB9C2406FB07FC4FEA1C4C0CFB0BF72F
:10344000B0EBC74072EB573203FB0CF734BFA2EB73
:10345000C742B2EBC74261EB57310CFB0EF7B0EB42
:10346000C70072EB57720CFB08F734BFA2EBC70220
:10347000B2EBC70261EB577115EB4C254FEA816146
:1034800041EA92114FEA82624FEAD13742EA901242
:1034900006FB07FC44F100044FEA80604FEA1C4C35
:1034A0000CFB0BF7D21B03FB0CF761EB07010CFBCA
:1034B0000EF7B0EB074072EB17420CFB08F734BF76
:1034C000A2EB0742B2EB074261EB174115EB1C156B
:1034D0004FEA813141EA92414FEA823242EA904218
:1034E0004FEA80304FEA0C7644F1000448EA034387
:1034F0004EEA0B484FF0000EB2EB080C71EB0307DD
:1035000024BF624639464EEB0E0E4FF0000B0018FA
:10351000524149414BEB0B0BB2EB080C71EB03072B
:103520007BF1000B24BF624639464EEB0E0E4FF086
:10353000000B0018524149414BEB0B0BB2EB080C4E
:1035400071EB03077BF1000B24BF624639464EEB5B
:103550000E0E51EA020718BF46F0010616EB0E7672
:1035600055F1000254F1000103D5BDE88901BDE821
:103570000088BDE88901BDE80048B619524141EB19
:103580000101A3F10103704780807F7E7D7C7B7AFF
:103590007978777676757473727171706F6E6E6DFF
:1035A0006C6C6B6A6A6968686766666564646363A5
:1035B00062616160605F5F5E5E5D5D5C5C5B5B5A2B
:1035C0005A59595858575756565555555454535398
:1035D00052525251515050504F4F4F4E4E4D4D4DF3
:1035E0004C4C4C4B4B4B4A4A4A494949484848473E
:1035F000474747464646454545444444444343437C
:103600004342424242414141002B9C4630D4770024
:103610002BD01CB54FEA370703B44FF010004FF022
:103620001001BAF1000F06D0BCF1000FDCBF40F072
:10363000080040F008014FF000000FBCBDE810404A
:103640000BF1010BBBF1010F08BF5FEA170722BFA7
:1036500012F1010211F101014FF0004143F10003A9
:1036600000F0004043EA00007047F9D35708D0E764
:1036700046EA064613F1400F4FEA16461FDD13F1E6
:10368000200FDFBF16430A46002120335B42BED025
:10369000C3F1200746EA064602FA07F74FEA164644
:1036A00046EA0706C3F1200722FA03F201FA07F7F8
:1036B00021FA03F14FF0000342EA0702A7E746EAC6
:1036C000020646EA06464FEA164646EA0106BCBF2F
:1036D00046EA0646360C4FF000034FF000024FF06A
:1036E000000194E72DE9804C9A46934670B491E826
:1036F000380007C831EA400C48BF34EA430C03D510
:10370000FFF7E6FDFFF780FFF0BCBDE8008C2DE978
:10371000804C9A46934670B491E8380007C810F080
:10372000804F08BF13F0804F03D100F005F8FFF77A
:103730006BFFF0BCBDE8008C20F07F4780EA0300FF
:1037400023F07F4C07EB0C03A3F57C5300F0004003
:10375000A3F1FE0392F0000F00F0B38095F0000F8C
:1037600000F077802DE901494FEA11404FEA1446F5
:1037700021EA004800FB06FC24EA064708FB06F69F
:1037800007FB08F800FB07F718EB06484CEB164C54
:103790004FEA124B18EB07484FEA15464CEB17401F
:1037A00022EA0B4E0BFB06FC25EA06470EFB06F64B
:1037B00007FB0EFE0BFB07F71EEB064E4CEB164C01
:1037C0004FF000061EEB074E4CEB174B18EB0B08A7
:1037D00040F1000018EB0E0B58EB000840F1000020
:1037E0008F1A4FF000013CBFC943661B14BFB5EBF5
:1037F000040C00213CBFC943F61B4FEA17444EEAB4
:103800008E0E27EA04454FEA1C4704FB07622CEAA8
:10381000074C05FB07F70CFB05F604FB0CFC16EB4D
:10382000074642EB174216EB0C4642EB1C421BEBE1
:10383000060658EB0202414146EA9E0601D5BDE864
:103840000189B619524141EB0101A3F10103BDE821
:1038500001894FEA14454FEA114724EA054621EA57
:10386000074C05FB07F406FB07F70CFB06F105FB0D
:103870000CFC11EB074144EB17444FEA124711EBE4
:103880000C4144EB1C4422EA074C05FB07F206FB03
:1038900007F70CFB06F605FB0CFC16EB074642EBA4
:1038A000174216EB0C4642EB1C456A1854F1000116
:1038B00048BF7047B619524141EB0101A3F1010322
:1038C000704795F0000F37D04FEA11424FEA144786
:1038D00021EA024624EA074C02FB07F106FB07F740
:1038E0000CFB06F402FB0CFC14EB074441EB174104
:1038F0004FEA154714EB0C4441EB1C4125EA074CF9
:1039000002FB07F506FB07F70CFB06F602FB0CFCB7
:1039100016EB074645EB174516EB0C4645EB1C42EC
:10392000121951F1000148BF7047B619524141EBDD
:103930000101A3F1010370474FEA14454FEA114713
:1039400024EA054621EA074C05FB07F106FB07F7C9
:103950000CFB06F24FF0000605FB0CFC12EB0742D5
:1039600041EB174112EB0C4251EB1C4148BF704731
:10397000921841EB0101A3F101037047490050EA9D
:10398000C12018BF04204A0D18BF40F0010040F2CA
:10399000FF72B2EB515F08BF40F00200012808BF80
:1039A000052070472DE9F74F144694B00021C4E973
:1039B00002111599079121F00045C9498D4206DC95
:1039C0001599C4E9000117B00020BDE8F08FC54982
:1039D000DFF814A3A9423CDD0799C44E0029C44F67
:1039E000C44A1599534619DD00F0ECFE554506D042
:1039F000C14AC24B00F0E6FEC4E900010AE04FF004
:103A0000D352BE4B00F0DEFE32463B4600F0DAFEFB
:103A1000C4E9000117B00120BDE8F08F00F066FB9B
:103A2000554506D0B44AB54B00F060FBC4E900012F
:103A30000AE04FF0D352B14B00F058FB32463B4600
:103A400000F054FBC4E9000117B04FF0FF30BDE8AF
:103A5000F08FAB49A942159978DB21F000418346EC
:103A60008846A84AA84B00F0A3FD0022A74B00F00F
:103A70003DFB00F043FD099000F06FFD06460F4648
:103A80009C4A534600F094FD43465A4600F08EFE91
:103A900080468A46984A994B3046394600F088FD60
:103AA0002A0D01250B924246534600F07FFE032D5E
:103AB000C4E9000139D00B98C1F30A51401A05EB53
:103AC00045111139814230DA9148C346784400EB00
:103AD0000510CDF80CA00C90D0E9002330463946F3
:103AE00000F066FD02460B46049106905846039985
:103AF00000F068FE80468A4602460B465846039907
:103B000000F060FE049B069A00F05CFE83460C9871
:103B100003913946D0E90223304600F049FD5A4668
:103B2000039B00F04FFE6D1CBDE707980028A2BF65
:103B3000099817B0BDE8F08F616881F000416160BD
:103B4000099817B04042BDE8F08FFFE7844615980A
:103B5000C1F31301C0F30A50A0F2F5304FEA601828
:103B600000F01F06C6F12000139000200690079079
:103B700041F4801E05206D4676B1664A08EB0001CF
:103B80007A4452F8213002EB8101B3404A6813991C
:103B900022FA01F1194305E05F4908EB000279447C
:103BA00051F82210A1FB0E27A1FB0C131A449A42D4
:103BB00034BF0123002303EB070A05EB8003D3E99D
:103BC00001B70F448F4234BF0121002193448B443D
:103BD00011B1934502D903E0934501D2012100E0E0
:103BE0000021C3E901B7514445F82010011EA0F19E
:103BF0000100C1DC0298059F00F10050800F129077
:103C00000298DDE90356800000F0A7FC83462846B1
:103C10000D9100F0B9FC6FF01D0201F03DF8CDE907
:103C20000E01304600F0B0FC6FF03D0201F034F8B8
:103C300080468A46384600F0A7FC6FF05D0201F02E
:103C40002BF8074642465346119100F04FFADDE942
:103C50000E2300F04BFA5A460D9B00F047FA002560
:103C60000E465A4628460D9B00F0ACFDDDE90E23BA
:103C700000F0A8FD4246534600F0A4FD3A46119BD1
:103C800000F094FDDFF898A0244A534600F090FC21
:103C900007468846234A244B3146284600F088FCD4
:103CA0003A46434600F022FA074688464FF0A842BB
:103CB00053463146284600F07BFC3A46434600F026
:103CC00015FA159A12F0004F04D0129A81F00041B3
:103CD00052421292C4E90001129817B0BDE8F08F69
:103CE000FB21E93F7CD90240FB21F93F7370032E91
:103CF0008A19A33B000040543163621A61B4D03D7D
:103D0000FB21394183C8C96D305FE43F0000E03FCB
:103D1000C81200004412000026120000182D44545E
:103D2000FB21F93D3326A611460B113C2DE9FF4D31
:103D300021F0004807460C46B8F1795F08DA00F038
:103D4000DDFB002801BF0020324904B0BDE8F08D42
:103D50003A4623461046194600F02AFC054602461C
:103D60002D480E460B460621784400F05DF82A46A1
:103D7000334600F01DFCDDE9022382468B463846BF
:103D8000214600F015FC04460F4652465B46284685
:103D9000314600F00DFC22463B4600F013FD07467D
:103DA0008A464FF0FF322846314600F075FF1B4A25
:103DB00090450ADA3A46534600F004FD04B000226A
:103DC000BDE8F04D134B00F0F1BC154A4245A8BFC9
:103DD000A8F500154FF00004B8BF124D22462B463F
:103DE00000F0F0FC0646884622462B460020094992
:103DF00000F0E8FC04460D463A465346304641463C
:103E000000F0E0FC04B022462B46BDE8F04D00F087
:103E1000CDBC00000000F03FFC0F00003333D33F67
:103E20000000E93F0000D23F2DE9F0414F1E00EBBA
:103E3000C7010446D1E9000115461E4637F00602C7
:103E40000DD02A46334600F0B3FB7F1E04EBC703B8
:103E5000D3E9002300F04AF937F00602F1D1022F2E
:103E600025D0042F13D0062F18BFBDE8F0812A46B5
:103E7000334600F09DFBD4E90A2300F037F92A46C7
:103E8000334600F095FBD4E9082300F02FF92A46C9
:103E9000334600F08DFBD4E9062300F027F92A46CB
:103EA000334600F085FBD4E9042300F01FF92A46CD
:103EB000334600F07DFBD4E9022300F017F92A46CF
:103EC000334600F075FBD4E90023BDE8F04100F073
:103ED0000DB900002DE9FF4D054621F0004084B0EA
:103EE0000C46B0F1795F0BDA2846FFF747FD04284E
:103EF00008BF00F06FF8284608B02146BDE8F08DF5
:103F00002A460B46104600F053FB06460F462A464B
:103F1000234600F04DFB804626488A4632463B4603
:103F200005217844FFF780FF83461098029160B323
:103F3000214A224B4046514600F03AFBCDE90001B0
:103F40005A4640465146029B00F032FB8246884664
:103F5000DDE906014FF0FF3200F09EFE5246434677
:103F600000F030FC32463B4600F022FBDDE9062340
:103F700000F028FCDDE9002300F024FC08B02A460C
:103F80002346BDE8F04D00F011BC0B465A463046C2
:103F9000394600F00DFB084A084B00F0A7F84246EE
:103FA000534600F005FB08B02A462346BDE8F04D15
:103FB00000F09CB83A0F0000495555555555C5BFFE
:103FC000012200F069BE002213461046114600F09F
:103FD0003DB90000024A0020110700F05DBE00005C
:103FE00001FDFFFF30380A2801D201207047002070
:103FF0007047000000B5254B21F0004287B09A427F
:1040000003DC0022134600922BE0214B9A4208D198
:1040100040B94FF00100FEF7CFF9FFF7D4FF07B02A
:1040200000BD03DBFFF7CCFF07B000BD02AAFFF71E
:10403000B9FC10F003014FF001000DD0012914D09C
:1040400002291AD00DF1080C9CE80F00FFF76EFE54
:1040500007B081F0004100BD0DF1080C00909CE814
:104060000F00FFF737FF07B000BD0DF1080C9CE80B
:104070000F00FFF75BFE07B000BD0DF1080C0090CC
:104080009CE80F00FFF726FFE2E70000FB21E93F75
:104090000000F07F10B500290AD00878002807D06A
:1040A00005487844FFF762F8002801D0002010BDD1
:1040B0000248784410BD00009A0E0000920E0000E5
:1040C00010B500290AD00878002807D005487844A0
:1040D000FFF74CF8002801D0002010BD02487844BA
:1040E00010BD00008A0E0000820E000010B591EA9B
:1040F000030F48BF83F0004300F16C83841A71EB17
:10410000030C05D2121943EB0C03001B61EB0C01ED
:10411000DFF824E14FEA1154A4EB135C1EEA430FCD
:1041200018BF9EEA445F73D023EA0E03DCF1200E31
:1041300021EA045143F4801332D322FA0CFE10EB2F
:104140000E0023FA0CFE41EB0E01CCF1200E03FA17
:104150000EFE10EB0E0051F10001B1F5801FCCF105
:10416000200E32D201EB045112FA0EF2BDE81040DB
:1041700058BF7047401C38BF5FEA420218BF704703
:10418000002814BF20F0010041F100014FEA410373
:1041900013F5001F38BF7047A1F1C04100F000BB0C
:1041A000012A43EB0302ACF1200CDCF11F0E32BFFD
:1041B0004FF0000E23FA0CF310EB030041EB045117
:1041C000B4EB115FD0D0A1EB045101F58011490887
:1041D0005FEA300001EB04510ED350F1000038BF0C
:1041E00012FA0EFE08D1BDE81040C9E7401C38BFE6
:1041F0005FEA4202CAD1C3E7BDE810404FEA41037B
:1042000013F5001F38BF7047A1F1C04100F0C8BAD4
:104210009EEA445F08D011EA5E0FBDE8104004BF7B
:1042200001F0004100207047BDE8104070B500F07B
:1042300069FA00BF64FBBE3E0000E0FF02494FF098
:10424000000000F0F7BC00BF0000F87F2DE9C0417E
:1042500030B4DFF8A0C23CEA111418BF3CEA1314D2
:1042600000F0EC8081EA03051CEA111444EAD574DD
:1042700018BF1CEA131500F0C780A4EB05044FF02B
:10428000004545EAC12145EAC32341EA505143EACA
:10429000525304F17F74994204F500344FEAC02070
:1042A0004FEAC22208BF904200F09C804FEA13659B
:1042B0000FF24016765D4FEA134506FB05F7C7F18E
:1042C000807706FB07F74FEAD737A7FB03687642EC
:1042D000C8F58038A7FB06CE38BFA8F1010807FB58
:1042E00008E64FF0000EA6FB028CE6FB03CEDCF1E5
:1042F000000CCEF1004E38BFAEF1010EA6FB0C58FB
:104300004FF000074FF00005E6FB0E87A1FB08C643
:10431000A0FB07CE16EB0E0645F10005E1FB076595
:1043200015F1E04E7EBFA4F580345FEA46066D418C
:1043300016F1800745F100054FEA17274FEA066698
:1043400047EA0567A6F1DE46B6F1805F4FEA15251C
:104350001FD9384624F0010C05EBC471BCF1FE6F87
:1043600001EB0C1102D8F0BCBDE8008124425CBF17
:1043700001F5801E9EEAC47F02D4F0BCBDE8008136
:10438000244238D4F0BCA1F1C041BDE8004100F0A6
:1043900007BA4FEAD22242EA43524FEAD323A7FB9D
:1043A00002864FEAD02040EA415007FB03661EEA2E
:1043B0000E0F4FEAD12105FB026658BFA6EB00564F
:1043C000B6EB00564FEA520E4EEAC37E18EB0E0EC5
:1043D00056EB530EBDD518EB02085E417F1C55F11C
:1043E0000005B6E74FF480154FF000074FF00006C8
:1043F0004FF00008ADE7F0BC4FF0000001F1C04104
:1044000001F00041BDE8008111EA0C1F0CEA131510
:1044100000D00CE013EA0C1F00F025804FF00000E4
:10442000F0BC81EA030101F00041BDE80081F0BC6D
:10443000BDE8004181EA030100F0B2B9F0BCBDE87B
:10444000004170B500F05EF9097EFC3E00F007B84F
:1044500081EA03014FF0000001F00041704781EA5A
:10446000030100F09DB9F0BCBDE800414FF0000031
:1044700021497047FFFDFBF9F7F5F4F2F0EEEDEBA3
:10448000E9E8E6E4E3E1E0DEDDDBDAD8D7D5D4D352
:10449000D1D0CFCDCCCBCAC8C7C6C5C4C2C1C0BF9E
:1044A000BEBDBCBBBAB9B8B7B6B5B4B3B2B1B0AFA4
:1044B000AEADACABAAA9A8A8A7A6A5A4A3A3A2A188
:1044C000A09F9F9E9D9C9C9B9A9999989797969543
:1044D00095949393929191908F8F8E8E8D8C8C8BDF
:1044E0008B8A898988888787868585848483838267
:1044F000828181800000FF070000F87F4FEA4103BE
:104500004FEA5353A3F58063D3F11E03C8BFD3F121
:10451000210C0CDD4FF0004242EAC12242EA505227
:1045200032FA03FC8CEAE17CACEBE1707047102BB3
:10453000C4BF0020704703F5787CBCF1FF3F04D076
:104540006FF0004282EA2100704770B500F0DAF89F
:104550004992248000207047F2E710F0004248BFE3
:104560004042B0FA80F310FA03F10AD0C3F11D0300
:1045700003F580634FEA415002EB035202EBD12175
:1045800070474FF000007047B0FA80F310FA03F163
:104590000AD0C3F11D0303F580634FEA41504FEA8F
:1045A000035202EBD12170474FF00000704700002A
:1045B000DFF848C170B51CEA111E1EBF1CEA1315B6
:1045C0009EEA0C0F95EA0C0F00F06F8081EA03045D
:1045D00023EA4C134EEAD47E21EA4C1141F48011B7
:1045E00043F48013AE44A1FB024CA0FB0365AEF183
:1045F0007F7E361955EB0C05A1FB034C4CF10003F3
:10460000A0FB021C16EB0C06654153F100030942A6
:1046100018BF46F0010613F4007F0BD14FEA0331B7
:104620004FEA0530340341EA155140EA16506FF065
:1046300003020AE04FEAC3214FEAC520F40241EA2F
:10464000555140EA56506FF0020202EB2E4201EB48
:10465000025585EACE710AD05FEA440C18BF24F0F7
:10466000004450F1000041F1000120EAD47040F212
:10467000FE7C624500D270BDA84214BF4FF080445A
:104680004FF04044002E08BF0024BEF1806FA8BF49
:10469000A1F1C041BDE8704080F282804FF000007F
:1046A00001F1C04101F0004170479EEA0C0F0CEA95
:1046B000131518BF95EA0C0F06D04FF0000081EAE1
:1046C000030E0EF0004170BD00F01CF88900013EA1
:1046D00000F007B800F009B84FEA430C5FEA5C5CF1
:1046E00008D081EA030100F05BB84FEA410C5FEAB1
:1046F0005C5CF6D14FF00000014970470000FF07F5
:104700000000F87F0EF1020E2EF0030E5EF8046B2F
:10471000364205D4012A43EB030515F5001F12D8D4
:10472000012841EB010C1CF5001F0CD80ED14FEAFB
:10473000D17C15F5001F0CEB4C0C0CF1020C08BFE2
:104740004CEBD37C04E04FF0080C01E04FEAD37C43
:104750000CEB4C0526FA05F606F00706B6F1040C3C
:1047600006D20EEB860CBDE870404CF0010C6047A1
:10477000DFE80CF0090B02024FF000414FF000009F
:10478000A1F5002170BD19461046012851EB010426
:1047900018BFD4F5001484BF002001F0004170BDA3
:1047A0000808A0F500114FEA3101704791EA030FA4
:1047B00010B581F000413FF5A1AC83F0004300F05B
:1047C00009B8000010B591EA030F48BF83F0004319
:1047D0003FF594AC841A71EB030C07D212198CF0DC
:1047E000004C43EB0C03001B61EB0C01DFF8A4E170
:1047F0004FEA1154A4EB135C1EEA430F18BF9EEA64
:10480000445F00F0B08023EA6E03524221EA045173
:10481000C3EB6E0338BF5B1EDCF1200E25D322FAFA
:104820000CFE10EB0E0043FA0CFE41EB0E01CCF136
:10483000200E03FA0EFE10EB0E0051F10001CCF138
:10484000200E29D412FA0EF201EB0451BDE81040FB
:1048500058BF7047401C1CBFB2F1004F7047002882
:104860000CBF491C20F00100704712EB020E43EB15
:10487000030218BF4FF0010E4EEA4202ACF1200CC9
:10488000DCF11E0E54D943FA0CFE10EB0E0051F170
:10489000FF31CCF11E0ED5D50EF1010E12FA0EFE2F
:1048A000404141EB010101EB445C5FEA5C5C10D9E3
:1048B00010EBDE7001EB045138BFBEF1004FBDE8D4
:1048C000104018BF704700280CBF491C20F00100A1
:1048D000704730D24FEAD42C11F5001124F4006453
:1048E0001BD0B1FA81F20B3AA41AA41ED2F1200314
:1048F000914030FA03F31943904001EBCC71002C46
:1049000001EB0451BDE81040A8BF704701F1C04160
:104910004FF0000001F000417047B0FA80F310FA48
:1049200003F100D110BDE41A173C4805C90AE4E7B9
:1049300001EB045110BD491001EB0451BDE81040DA
:104940004FEA300002E04FF0000170474A0008BF14
:104950000042F8D0B2F5001F28BF704701F00041B7
:104960004FF0000070479EEA445F07D011EA5E0FE7
:10497000BDE8104004BF002100207047BDE8104092
:1049800070B5FFF7BFFE00BF40DFF63E83F0004189
:10499000104670470000E0FF43004FEAD30C4FEA97
:1049A0003C0C43401FBF40070CF1605113F0FE4F19
:1049B00070471CF0006F03D100200CF000417047DD
:1049C0000CF0004343EA507010B540EACC0000F010
:1049D000E4F800BF000000924FEA0001FFF7E0BEDC
:1049E0004FF000414FF00000A1F50021704700009A
:1049F0004FF47F0C1CEAD0121EBF1CEAD11392EABE
:104A00000C0F93EA0C0F00F0858090EA010F48BF6D
:104A100042F4807240F4000C41F400002CF07F411D
:104A200020F07F4000B58142A2EB03020FF2081C88
:104A3000ACEB504EC0F100009EF800E04FEA4E0E85
:104A400000FB0EFC38BF49004FEA2C1C02F5FA02AD
:104A50000CFB0EF34FEACE1E4FEA112C4FEAC12198
:104A60000EEB635E42EB22420EFB0CFC4FEA1C5342
:104A700000FB03114FEA112C4FEA01310EFB0CFC35
:104A80004FEADC4C00FB0C11C14228BF09184CEB6B
:104A900003335DF804EB10EB410143EBC250B2F578
:104AA0007C0F38BF704729D512F0F00F1CBF00F102
:104AB000C04000F000407047008182838485868773
:104AC00088898B8C8D8E8F919293959697999A9CCD
:104AD0009D9FA0A2A3A5A7A8AAACAEB0B2B3B5B73C
:104AE000B9BCBEC0C2C5C7C9CCCED1D4D7D9DCDF12
:104AF000E2E6E9ECF0F3F7FAFE0000004FEA400CC2
:104B00000CF1807CBCF17E4F28BF7047B0F1C040F3
:104B100000F089B890EA010F0CEAD11348BF42F4C3
:104B20008072624538BF634507D213F47F0F16D0F9
:104B300080EA010000F00040704710B500F02DF849
:104B4000097EFC3E00F005B880EA010000F000405C
:104B5000704780EA010000F0004000F064B812F4F1
:104B60007F0F04BF0248704780EA010000F05BB885
:104B70000000C07FB0FA80F310FA03F2C3F19D0386
:104B80000AD0D90501EB1220530638BF704700F157
:104B9000010008BF20F0010070470EF1020E2EF058
:104BA000030E5EF8044B244204D44FEA4102B2F1F2
:104BB0007F4F11D84FEA4003B3F17F4F0CD80ED18D
:104BC0004FEAD07CB2F17F4F0CEB4C0C0CF1020C95
:104BD00008BF4CEBD17C04E04FF0080C01E04FEA39
:104BE000D17C0CEB4C0324FA03F404F00704B4F179
:104BF000040C06D20EEB840CBDE810404CF0010C06
:104C00006047DFE80CF0070802024FF00040A0F513
:104C1000800010BD0846420018BFD2F1807288BFE4
:104C200000F0004010BDFF2141EAD050C0057047A0
:104C3000FEF727B80CF00F03092B08BF082000F07F
:104C400059800A2B0BD0082B18BF704708BF1CF0E7
:104C5000400F0AD04FF000004FF0000170471CF0E9
:104C6000400F18BF4FF0004070471CF0100F08D0E5
:104C700020F0704300F07F4242EAD3014FEA4370D4
:104C8000704700F0604021F07F4242EA000201F0EC
:104C90007F4040EA727070474FF0FF0C4CF4E06CBC
:104CA0001CEA11531CBF9CEA030C9445C2BFDA42B4
:104CB00001EB02517047002B0DD0BCF1000F0FD05B
:104CC000002A01F00041A4BF41F0E04141F07F61C2
:104CD0004FF00000704701F000414FF000007047B6
:104CE00050EA01334FF09B0C18BF4CF0806C7FF4FE
:104CF000A5AA70471CF4801F11D01CF4E02F03D02C
:104D00006FEACC31490070474FF04050EFF300821A
:104D100022F0704242EA000282F3008870474FF0AE
:104D20000000704700000000000000003031323306
:104D300034353637383941424344454640305800CF
:104D40003031323334353637383961626364656601
:104D5000403078000400000800000000000000025D
:104D600000010000100000004C5555555555A53F59
:104D70007751C1166CC156BF9015CB19A001FA3EF0
:104D8000AD529C804F7E92BEC4B1B4BD9EEE213E1A
:104D9000D43888BEE9FAA8BD00004054FB21F93F91
:104DA0003163621A61B4D03D0000601A61B4D03D35
:104DB0007370032E8A19A33B0000002E8A19A33BAF
:104DC000C14920259A837B390000000000000000C3
:104DD0006E83F9A22915444ED15727FCC0DD34F566
:104DE000999562DB4190433CAB6351FE61C5BBDEEC
:104DF0003A6E24B7E0D24D42EA2E49061C92D10900
:104E00001CEB1DFE3EA729B1F53582E88444BB2E7C
:104E100026709CE9417E5FB439D69139F4395383C9
:104E20008B5F849C3B28F9BDFF97F81F0F9805DE28
:104E30008B112FEF1F6D0A5ACF7E366DB709CB2726
:104E4000663F464F2DEA5F9EC7BA27757BF1E5EBBB
:104E5000F739073DEA92528AB15FFB6B085D8D1FFF
:104E6000A6F810111111813FD561C119A0012ABF07
:104E70007DFEB157E31DC73EEB9C2B8AE6E55ABE8B
:104E80007CD5CF5A3AD9E53D02400000000000A091
:104E90000000000005400000000000C80000000005
:104EA0000C4000000000409C000000001940000081
:104EB0000020BCBE0000000034400000BFC91B8EB3
:104EC00000000004B5400000504BCFD06607E2CF91
:104ED000010000006C4100003E8251AADFEEA734C1
:104EE00001000000D9420000DCB5A0E23A301F9773
:104EF000FFFFFFFFB4450000FD25A0C8E9A3C14F97
:104F0000FFFFFFFFFF3F00000000008000000000E7
:104F1000FF3F000000000080000000006850000813
:104F2000000000205400000028010008BC500008C8
:104F3000540000208C070000440100081C00000001
:104F400043000000F8FFFFFF0C0000000E0000000F
:104F50000F0000002E0000001001000043000000C0
:104F6000F8FFFFFF0040404040404040404041418A
:104F7000414141404040404040404040404040402E
:104F800040404040400502020202020202020202C8
:104F900002020202022020202020202020202002C5
:104FA0000202020202029090909090901010101055
:104FB00010101010101010101010101010101010F1
:104FC0000202020202028888888888880808080885
:104FD0000808080808080808080808080808080851
:104FE0000202020240000000000000000000000079
:104FF00000000000000000000000000000000000B1
:1050000000000000000000000000000000000000A0
:105010000000000000000000000000000000000090
:105020000000000000000000000000000000000080
:105030000000000000000000000000000000000070
:105040000000000000000000000000000000000060
:105050000000000000000000000000000000000050
:10506000000000000000000000A24A040000000050
:105070000000000001020304060708090000000008
:105080000000000000000000000000000000000020
:10509000000000000000000000000000030000000D
:1050A00000000000000000000000000001020304F6
:0C50B000010203040607080902040608B8
:04000005080000ED02
:00000001FF
